:1000000080180020792B00007D7E0000652B000009
:10001000652B0000652B0000652B00000000000030
:10002000000000000000000000000000252D00007E
:10003000652B000000000000F12C0000652B000083
:10004000A92E0000A92E0000A92E0000A92E000054
:10005000A92E0000A92E0000A92E0000A92E000044
:10006000A92E0000A92E0000A92E0000A92E000034
:10007000A92E0000A92E0000A92E0000A92E000024
:10008000A92E0000A92E0000A92E0000A92E000014
:10009000A92E0000A92E0000A92E0000A92E000004
:1000A000A92E0000A92E0000A92E0000A92E0000F4
:1000B000A92E0000A92E0000A92E0000A92E0000E4
:1000C000A92E0000A92E0000A92E0000A92E0000D4
:0C00D000A92E0000A92E0000A92E00009F
:1000E00001F0FF01102A2BDB10F0070F08D010F8E9
:1000F000013B013A8B422DD010F0070F42B3F6D1ED
:10010000F0B441EA012141EA014122F007047FF005
:1001100000070023F0E80256083C85EA010586EA5C
:10012000010685FA47F5A3FA87F586FA47F6A5FA98
:1001300087F68EB9EED1F0BC01F0FF0102F00702A4
:1001400032B110F8013B013A83EA010313B1F8D14F
:100150000020704701387047002D06BF3546033830
:10016000073815F0010F07D1013015F4807F02BF69
:10017000013015F4C03F0130F0BC0138704700BFBA
:1001800081F0004102E000BF83F0004330B54FEA48
:1001900041044FEA430594EA050F08BF90EA020FB5
:1001A0001FBF54EA000C55EA020C7FEA645C7FEA48
:1001B000655C00F0E2804FEA5454D4EB5555B8BF6B
:1001C0006D420CDD2C4480EA020281EA030382EADC
:1001D000000083EA010180EA020281EA0303362D6E
:1001E00088BF30BD11F0004F4FEA01314FF4801C41
:1001F0004CEA113102D0404261EB410113F0004F53
:100200004FEA03334CEA133302D0524263EB430309
:1002100094EA050F00F0A780A4F10104D5F1200EA7
:100220000DDB02FA0EFC22FA05F2801841F1000102
:1002300003FA0EF2801843FA05F359410EE0A5F1D6
:1002400020050EF1200E012A03FA0EFC28BF4CF007
:10025000020C43FA05F3C01851EBE37101F00045BD
:1002600007D54FF0000EDCF1000C7EEB00006EEBCA
:100270000101B1F5801F1BD3B1F5001F0CD3490854
:100280005FEA30004FEA3C0C04F101044FEA4452AB
:1002900012F5800F80F09A80BCF1004F08BF5FEA32
:1002A000500C50F1000041EB045141EA050130BD12
:1002B0005FEA4C0C404141EB0101013C28BFB1F524
:1002C000801FE9D291F0000F04BF01460020B1FA6F
:1002D00081F308BF2033A3F10B03B3F120020CDA42
:1002E0000C3208DD02F1140CC2F10C0201FA0CF020
:1002F00021FA02F10CE002F11402D8BFC2F1200C85
:1003000001FA02F120FA0CFCDCBF41EA0C0190403A
:10031000E41AA2BF01EB0451294330BD6FEA040483
:100320001F3C1CDA0C340EDC04F11404C4F120026E
:1003300020FA04F001FA02F340EA030021FA04F380
:1003400045EA030130BDC4F10C04C4F1200220FAD7
:1003500002F001FA04F340EA0300294630BD21FA15
:1003600004F0294630BD94F0000F83F4801306BFDB
:1003700081F480110134013D4EE77FEA645C18BFCF
:100380007FEA655C29D094EA050F08BF90EA020F66
:1003900005D054EA000C04BF1946104630BD91EA5E
:1003A000030F1EBF0021002030BD5FEA545C05D161
:1003B0004000494128BF41F0004130BD14F58004A0
:1003C0003CBF01F5801130BD01F0004545F0FE4114
:1003D00041F470014FF0000030BD7FEA645C1ABF49
:1003E000194610467FEA655C1CBF0B46024650EA80
:1003F000013406BF52EA033591EA030F41F40021AC
:1004000030BD00BF90F0000F04BF0021704730B531
:100410004FF4806404F132044FF000054FF0000106
:1004200050E700BF90F0000F04BF0021704730B5C7
:100430004FF4806404F1320410F0004548BF40429C
:100440004FF000013EE700BF42004FEAE2014FEAF1
:1004500031014FEA02701FBF12F07F4393F07F4FCC
:1004600081F06051704732F07F4208BF704793F0CF
:100470007F4F04BF41F40021704730B54FF46074E2
:1004800001F0004521F000411CE700BF50EA0102E5
:1004900008BF704730B54FF000050AE050EA01028E
:1004A00008BF704730B511F0004502D5404261EBFE
:1004B00041014FF4806404F132045FEA915C3FF43F
:1004C000D8AE4FF003025FEADC0C18BF03325FEADC
:1004D000DC0C18BF033202EBDC02C2F1200300FA8D
:1004E00003FC20FA02F001FA03FE40EA0E0021FAB2
:1004F00002F11444BDE600BF70B54FF0FF0C4CF4A0
:10050000E06C1CEA11541DBF1CEA135594EA0C0F51
:1005100095EA0C0F00F0DEF82C4481EA030621EA8C
:100520004C5123EA4C5350EA013518BF52EA0335C7
:1005300041F4801143F4801338D0A0FB02CE4FF079
:100540000005E1FB02E506F00042E0FB03E54FF0A9
:100550000006E1FB03569CF0000F18BF4EF0010EA1
:10056000A4F1FF04B6F5007F64F5407404D25FEA9D
:100570004E0E6D4146EB060642EAC62141EA555150
:100580004FEAC52040EA5E504FEACE2EB4F1FD0C92
:1005900088BFBCF5E06F1ED8BEF1004F08BF5FEA10
:1005A000500E50F1000041EB045170BD06F00046C2
:1005B00046EA010140EA020081EA0301B4EB5C046F
:1005C000C2BFD4EB0C0541EA045170BD41F4801167
:1005D0004FF0000E013C00F3AB8014F1360FDEBF8C
:1005E000002001F0004170BDC4F10004203C35DA68
:1005F0000C341BDC04F11404C4F1200500FA05F3EB
:1006000020FA04F001FA05F240EA020001F000428B
:1006100021F0004110EBD37021FA04F642EB060101
:100620005EEA430E08BF20EAD37070BDC4F10C042B
:10063000C4F1200500FA04F320FA05F001FA04F2EF
:1006400040EA020001F0004110EBD37041F10001DB
:100650005EEA430E08BF20EAD37070BDC4F12005E6
:1006600000FA05F24EEA020E20FA04F301FA05F24E
:1006700043EA020321FA04F001F0004121FA04F2F6
:1006800020EA020000EBD3705EEA430E08BF20EAC6
:10069000D37070BD94F0000F0FD101F00046400000
:1006A00041EB010111F4801F08BF013CF7D041EA82
:1006B000060195F0000F18BF704703F00046520086
:1006C00043EB030313F4801F08BF013DF7D043EA57
:1006D0000603704794EA0C0F0CEA135518BF95EA0D
:1006E0000C0F0CD050EA410618BF52EA4306D1D194
:1006F00081EA030101F000414FF0000070BD50EAB3
:10070000410606BF1046194652EA430619D094EA3C
:100710000C0F02D150EA013613D195EA0C0F05D126
:1007200052EA03361CBF104619460AD181EA03017A
:1007300001F0004141F0FE4141F470014FF0000032
:1007400070BD41F0FE4141F4780170BD70B54FF0CD
:10075000FF0C4CF4E06C1CEA11541DBF1CEA13554D
:1007600094EA0C0F95EA0C0F00F0A7F8A4EB05042F
:1007700081EA030E52EA03354FEA013100F0888026
:100780004FEA03334FF0805545EA131343EA1263EF
:100790004FEA022245EA111545EA10654FEA0026A4
:1007A0000EF000419D4208BF964244F1FD0404F55D
:1007B000407402D25B084FEA3202B61A65EB0305B9
:1007C0005B084FEA32024FF480104FF4002CB6EB76
:1007D000020E75EB030E22BFB61A754640EA0C00F6
:1007E0005B084FEA3202B6EB020E75EB030E22BF36
:1007F000B61A754640EA5C005B084FEA3202B6EB77
:10080000020E75EB030E22BFB61A754640EA9C0035
:100810005B084FEA3202B6EB020E75EB030E22BF05
:10082000B61A754640EADC0055EA060E18D04FEAC3
:10083000051545EA16754FEA06164FEAC30343EA63
:1008400052734FEAC2025FEA1C1CC0D111F4801F30
:100850000BD141EA00014FF000004FF0004CB6E729
:1008600011F4801F04BF01430020B4F1FD0C88BFC8
:10087000BCF5E06F3FF6AFAEB5EB030C04BFB6EBD3
:10088000020C5FEA500C50F1000041EB045170BDC6
:100890000EF0004E4EEA113114EB5C04C2BFD4EBF3
:1008A0000C0541EA045170BD41F480114FF0000E77
:1008B000013C90E645EA060E8DE60CEA135594EAF3
:1008C0000C0F08BF95EA0C0F3FF43BAF94EA0C0FF6
:1008D0000AD150EA01347FF434AF95EA0C0F7FF46B
:1008E00025AF104619462CE795EA0C0F06D152EABF
:1008F00003353FF4FDAE1046194622E750EA4106A3
:1009000018BF52EA43067FF4C5AE50EA41047FF4B3
:100910000DAF52EA43057FF4EBAE12E74FF0FF3C18
:1009200006E000BF4FF0010C02E000BF4FF0010CE9
:100930004DF804CD4FEA410C7FEA6C5C4FEA430C62
:1009400018BF7FEA6C5C1BD001B050EA410C0CBFB1
:1009500052EA430C91EA030F02BF90EA020F002013
:10096000704710F1000F91EA030F58BF994208BF7A
:1009700090422CBFD8176FEAE37040F00100704737
:100980004FEA410C7FEA6C5C02D150EA013C07D18E
:100990004FEA430C7FEA6C5CD6D152EA033CD3D0D9
:1009A0005DF8040B704700BF8446104662468C46D3
:1009B0001946634600E000BF01B5FFF7B7FF002806
:1009C00048BF10F1000F01BD4DF808EDFFF7F4FF2F
:1009D0000CBF012000205DF808FB00BF4DF808EDBA
:1009E000FFF7EAFF34BF012000205DF808FB00BFDD
:1009F0004DF808EDFFF7E0FF94BF012000205DF8FF
:100A000008FB00BF4DF808EDFFF7CEFF94BF0120B3
:100A100000205DF808FB00BF4DF808EDFFF7C4FFAC
:100A200034BF012000205DF808FB00BF4FEA410CF5
:100A30007FEA6C5C02D150EA013C0AD14FEA430CD8
:100A40007FEA6C5C02D152EA033C02D14FF0000015
:100A500070474FF0010070474FEA410212F5001253
:100A600015D211D56FF47873B3EB625212D94FEAF5
:100A7000C12343F0004343EA505311F0004F23FADF
:100A800002F018BF404270474FF00000704750EA34
:100A9000013005D111F0004008BF6FF000407047F1
:100AA0004FF00000704700BF53B94AB9002908BF92
:100AB00000281CBF4FF0FF314FF0FF3000F00CB8A2
:100AC000ADF1080C6DE904CE00F010F8DDF804E09B
:100AD000DDE9022304B07047704700BF034613F8F6
:100AE000012B002AFBD1181A013870472DE9F04775
:100AF00086468C460846089E154674461946002BC5
:100B000040F0C2808542B2FA82F245D94AB1C2F1C0
:100B1000200300FA02FC2EFA03F3954043EA0C0C82
:100B200094404FEA154EA8B2BCFBFEF8230C0EFB16
:100B300018CC08FB00F943EA0C43994528D9EB1877
:100B400008F1FF3704D2994502D9A8F102072B44D6
:100B5000A3EB0903A4B2B3FBFEFC0EFB1C330CFB9E
:100B600000F044EA0344A04214D92C190CF1FF33DD
:100B700004D2A04202D9ACF102032C44241A43EA65
:100B800007401EB1D440002334607360BDE8F08795
:100B90004746DDE76346F1E792BB431B01214FEA7D
:100BA000154EAFB2B3FBFEFC200C0EFB1C330CFB4E
:100BB00007F840EA0343984562D9EB180CF1FF307F
:100BC00004D2984502D9ACF102002B44A3EB0803F0
:100BD000A4B2B3FBFEFC0EFB1C330CFB07F744EA8C
:100BE0000344A7424ED92C190CF1FF3304D2A7427B
:100BF00002D9ACF102032C44E41B43EA0040C0E7F5
:100C0000C2F1200320FA03F1954090402EFA03F33D
:100C100003434FEA154EAFB2B1FBFEFC0EFB1C10B6
:100C2000190C0CFB07F841EA0041884504FA02F46C
:100C300022D969180CF1FF3004D2884502D9ACF1F1
:100C400002002944A1EB08019BB2B1FBFEFC0EFBA4
:100C50001C110CFB07F743EA01439F420ED9EB1826
:100C60000CF1FF3104D29F4202D9ACF102012B44B6
:100C7000DB1B41EA004192E76046E3E76146F7E7A4
:100C80006046A3E76346B7E7834206D916B9002159
:100C900008467BE7C6E900E0F9E7B3FA83F78FB9C6
:100CA000834201D3724508D8BEEB020460EB030314
:100CB00001209C461EB9002168E73846FAE7C6E9DC
:100CC000004CF8E7C7F1200CBB4022FA0CF41C439F
:100CD0002EFA0CF120FA0CF3B84001434FEA144904
:100CE0000EFA07F5B3FBF9F81FFA84FE09FB18307A
:100CF0000B0C08FB0EFA43EA00439A4502FA07F28E
:100D000040D9E31808F1FF3004D29A4502D9A8F17E
:100D100002002344A3EB0A0389B2B3FBF9F809FBF1
:100D2000183308FB0EFE41EA03418E452CD96118A9
:100D300008F1FF3304D28E4502D9A8F10203214401
:100D400043EA0040A0FB0298A1EB0E014145CE46CC
:100D5000434602D306D14D4504D2B9EB020E68EBEF
:100D600004030138002EA6D0B5EB0E0261EB03019F
:100D700001FA0CFC22FA07F34CEA0303F940C6E936
:100D8000003198E74046C5E74346D9E70000000038
:100D90002DE9F04F476A97B014461D46CDE904454A
:100DA000239E83467FB9102005F0F2FA0246CBF865
:100DB000240020B9A24BEA21A24806F061FDC0E957
:100DC00001770760C760DBF82430196859B15A68A9
:100DD0004A60012393408B60584606F035F8DBF8F3
:100DE000243000221A602B1EB9BF23F00043059364
:100DF00000233360059F944BBCBF01223260BB438C
:100E000019D1229A42F20F731360C7F313032343DD
:100E100000F0E285249B53B98C4B21E08C4B089366
:100E20000833249A1360089817B0BDE8F08F874BF9
:100E300008930333F5E7DDE90423CDE90C23DDE96D
:100E40000C0100220023FFF7BFFD804650B1229A1B
:100E500001231360249B13B1249A7E4B13607E4BB5
:100E60000893E0E714AB019315AB00935846DDE916
:100E70000C2306F069FAC7F30A560390002E7AD0C5
:100E80000D9BCDF84C80C3F31303DDE90C0143F057
:100E90007F5343F44013A6F2FF36194600226F4BEE
:100EA000FFF772F960A3D3E90023FFF725FB60A3E6
:100EB000D3E90023FFF76AF9044630460D46FFF7F1
:100EC000B1FA5DA3D3E90023FFF716FB02460B46F8
:100ED00020462946FFF75AF904460D46FFF7BCFDA8
:100EE00000220746002320462946FFF777FD40B140
:100EF0003846FFF797FA22462B46FFF765FD00B903
:100F0000013F162F54D8564B03EBC703D3E90023F8
:100F1000DDE90C01FFF762FD00284BD0013F002303
:100F20001293149B9B1B5A1E45BFC3F101030693EA
:100F3000002300230A9254BF06930A93002F3BDB41
:100F40000A9B0F973B440A9300230B93209B092B8A
:100F500000F28A80052BC4BF043B2093209BA3F1A1
:100F60000203CCBF00240124032B00F28880DFE8B9
:100F700003F02B383657DDE914631E4406F2324382
:100F8000202BC1BFC3F140039F4006F2124324FA55
:100F900003F3D6BFC3F1200347EA030004FA03F0CA
:100FA000FFF730FA0122A1F1F873013E139274E7C2
:100FB0000123B5E71290B4E7069BDB1B06937B4247
:100FC0000B9300230F93C1E700230E93219B002B6B
:100FD00058DC0123099399461A4621920CE001231B
:100FE000F3E700230E93219BFB1803F101090993FA
:100FF0004B46012BB8BF0123DBF82400002104225B
:1010000002F114059D4241D94160584605F0DCFECD
:10101000089000283DD1134B02464FF4D571CBE622
:101020000123DFE7AFF3008061436F63A787D23FFF
:10103000B3C8608B288AC63FFB799F501344D33FC7
:10104000F2960000099700000000F07FEE96000085
:10105000E59600003F9500003E9500000000F83F37
:10106000B09000007D9700000124002320930E948F
:101070004FF0FF330993994600221223ADE7012375
:101080000E93F5E7219B09939946B5E7013152008C
:10109000B6E7DBF82430089A1A60B9F10E0F6FD862
:1010A000002C6DD0002F36DDA14B07F00F0203EBB3
:1010B000C203D3E90034F805CDE910344FEA271410
:1010C00017D59C4BDDE90C01D3E90823FFF73EFB64
:1010D000CDE9040104F00F044FF00308954D5CB90D
:1010E000DDE91023DDE90401FFF730FBCDE9040160
:1010F0002BE04FF00208F1E7E10709D5DDE9100127
:10110000D5E90023FFF7F8F9CDE9100108F101084E
:1011100064100835E3E700F007817C42844B854D7D
:1011200004F00F0203EBC203D3E90023DDE90C0155
:10113000FFF7E2F9CDE90401241100234FF0020882
:10114000002C40F0E580002BD0D1129BDDE9044556
:10115000002B00F04C81784B002220462946FFF7F7
:101160003DFC002800F04381B9F1000F00F03F8101
:10117000099B002B00F3E480DDE90C34CDE9043455
:10118000159B002B02DB0E2F40F342820E9A002AA1
:1011900040F067820B9CDDF818800025B8F1000F45
:1011A0000DD00A9B002B0ADD4345069AA8BF434693
:1011B000D21A06920A9AA8EB0308D31A0A930B9B39
:1011C0000BB30E9B002B00F0A682002C00F0A18236
:1011D00029462246584605F05FFF039A0146054618
:1011E000584605F0AFFE03990646584605F02CFE1A
:1011F0000B9B1B1B0B9300F091820B9A31465846B8
:1012000005F04AFF03900121584605F085FE0F9B2B
:101210000446002B00F084821A460146584605F029
:101220003BFF209B012B044603DC049B002B00F0BA
:101230007C820026236904EB8303186907F077FC9E
:101240000F96C0F120000A9B184410F01F0000F018
:101250009182C0F12003042B40F38182069BC0F1F0
:101260001C00034406930A9B034480440A93069B94
:10127000002B05DD03991A46584605F067FF0390D9
:101280000A9B002B05DD21461A46584605F05EFFF5
:101290000446129B002B00F076820398214607F04B
:1012A00095FC002880F26F82002303990A22584699
:1012B00005F0ECFD0E9B03907E1E002B00F05C827F
:1012C000002329460A22584605F0E0FD099B002B21
:1012D000054603DC209B022B00F35E82B8F1000F71
:1012E00005DD29464246584605F030FF05460F9B6E
:1012F000002B00F0D0826968584605F065FD07466E
:10130000002840F07F820D4B024640F2EA2153E56F
:10131000E20706D5D5E90023FFF7EEF808F101084A
:101320000123641008350BE74FF002080DE700BFFA
:10133000B0900000889000000000F03F7D97000012
:101340002046AD4B00222946FFF7D6F8CDE904012F
:10135000099C7E1E08F101084046FFF763F8DDE9AD
:101360000423FFF7C9F8A54B0022FEF70FFFA1F1F8
:101370005073CDE910011193002C3BD1DDE904013C
:101380009F4B0022FEF700FF02460B46CDE90423E7
:10139000DDE91023FFF740FB002840F05781DDE92D
:1013A000102101F10043DDE90401FFF717FB0028DC
:1013B0003FF4E2AE00242546219BDDF820A0DE4369
:1013C0004FF000082146584605F03EFD002D00F084
:1013D000A980B8F1000F05D0A84503D04146584672
:1013E00005F032FD2946584605F02EFD9AE03E46AE
:1013F0004C46B1E7834B03EBC40353E90201089B5E
:101400001C440E9B002B4AD002460B4600207E490E
:10141000FFF79CF9DDE91023FEF7B6FECDE91001D8
:10142000DDF820A0DDE90401FFF716FB0546FEF715
:10143000F9FF02460B46DDE90401FEF7A5FE303553
:10144000CDE9040102460B460AF8015BDDE9100113
:10145000FFF7E2FA002865D1DDE904236B4900209B
:10146000FEF792FE02460B46DDE91001FFF7D4FAC3
:10147000002840F00D81A24500F0EA80DDE910016E
:101480005D4B0022FFF738F85B4BCDE910010022DD
:10149000DDE90401FFF730F8CDE90401C2E7DDE939
:1014A0001023FFF729F8CDE91001DDF820A0A046B0
:1014B000DDE90401FFF7D0FA0546FEF7B3FF024667
:1014C0000B46DDE90401FEF75FFE30350AF8015BEB
:1014D00002460B46A245CDE904234FF0000223D17A
:1014E000494BDDE91001FEF751FE02460B46DDE9EE
:1014F0000401FFF791FA002840F0CA80DDE91023CB
:1015000041490020FEF740FE02460B46DDE904019A
:10151000FFF764FA70B1C24608F1FF381AF8013CCF
:10152000302BF8D0374655E0334BFEF7E5FFCDE9D9
:101530000401BDE7DDE90C34CDE90434159B002B33
:10154000FFF628AE0E2F3FF725AE2E4B03EBC70359
:10155000D3E90034CDE90634219B002B02DAB9F13E
:10156000000F64D0DDE90445DDF820A0DDE90623A5
:1015700020462946FFF7EAF8FFF76EFA0646FEF71F
:1015800051FFDDE90623FEF7B7FF02460B46204672
:10159000294606F13004FEF7F7FD0AF8014B089CD6
:1015A000AAEB0404A14502460B4640F08280FEF7F8
:1015B000EDFDDDE9062304460D46FFF72DFA002870
:1015C00065D1DDE9062320462946FFF7FDF908B17C
:1015D000F3075CD40399584605F036FC00238AF8DB
:1015E0000030229B01371F60249B002B3FF41BAC73
:1015F000C3F800A017E400BF0000244000001C4016
:1016000000001440B09000000000E03F0000F03FF8
:10161000A24B03EBC703D3E90034CDE90634219B89
:10162000002B9FDAB9F1000F9CDC7FF4C3AE9C4B1A
:101630000022DDE90601FEF75FFFDDE90423FFF785
:10164000E1F9044600287FF4B5AE3E462546B4E0F5
:10165000DDE90C34CDE90434159B002B01DB0E2FA2
:10166000D6DD209A012A36DC139A82B303F2334383
:101670000B9CDDF81880069A1A4406920A9A0121FA
:101680001A4458460A9205F047FC054686E53E4650
:1016900053469A4613F8012D392A06D1089A9A42E0
:1016A000F7D10899302201360A701A7801321A707F
:1016B00038E77C4B0022FEF71FFF00220023044680
:1016C0000D46FFF781F900283FF450AF82E7149BE5
:1016D000C3F13603CCE70B9B09F1FF34A34208DBCF
:1016E000B9F1000FA3EB04040EDBDDF818804B46C4
:1016F000C1E70B9B0F9A0B94E31A1A44DDF818808C
:101700000F924B460024B6E7069BA3EB0908002383
:10171000B1E7039E71E50B9A039970E5039672E5B4
:10172000209B012B17DC049BABB9059BC3F3130370
:101730009BB9059B23F00046360D360536B1069B56
:10174000013306930A9B01330A9301260F9B002B5A
:101750007FF470AD0F96012075E50026F6E73FF4A3
:1017600086AD069A1C331A4406920A9A1A44984483
:101770000A927CE50346F4E7099B002B2BDC209BB7
:10178000022B09DC27E0B9F1000F1DDC209B022BA6
:101790001ADDCDF824903E46099B002B7FF40CAE59
:1017A00021460522584605F071FB01460446039880
:1017B00007F00CFA00287FF7FFADDDF820A03123F9
:1017C0000AF8013B0136FBE50E9BCDF824903E461E
:1017D000002B7FF483AD089F0398214607F0EAF8B9
:1017E00000F1300907F8019B089B099AFB1A9A42FD
:1017F00040F3CB80039900230A22584605F046FBAC
:101800000390E9E72A690232920005F10C010C30DD
:1018100006F0A0FF01223946584605F097FC089BC8
:1018200003F1010ADDE9082313440A93049B03F042
:101830000103A8460B9305460AF1FF33214603989E
:10184000069307F0B7F84146099000F13009039874
:1018500007F0BCF92A4621460746584605F0E2FC47
:10186000C268014602B3584605F0EEFA002F3ADA94
:1018700003990122584605F069FC2146039007F0C0
:10188000A5F9002803DC29D119F0010F26D0B9F100
:10189000390F1DD132E02846C1E700BFB0900000EB
:1018A00000001440000024400E90039807F08EF9C9
:1018B0000E990C90584605F0C7FA0C9A5ABB209B1B
:1018C00053B90B9B43B9B9F1390F17D0002F05DD80
:1018D000099B03F1310901E0002F2ADADDF818A095
:1018E0000AF8019B6EE5209B3B4304D1049B03F067
:1018F0000103002BBCD0B9F1390F36D1069F392333
:1019000007F8013BBA46013F1AF8013C392B5BD07E
:1019100001333B7056E5002F06DB209B3B4306D18D
:10192000049B03F0010313B9002AA1DCD6E7002AC7
:10193000E1DC0A9B0AF8019C534557462FD00399D6
:1019400000230A22584605F0A1FAA84503904FF05B
:1019500000034FF00A02414658460BD105F096FAB3
:10196000804605460AF1010A66E7DDF818A009F18C
:101970000109B5E705F08AFA2946804600230A22C4
:10198000584605F083FA0546ECE7099B002BC8BFD3
:101990001F46089BD8BF01271F444FF0000803993A
:1019A0000122584605F0D2FB2146039007F00EF9BC
:1019B0000028A7DC02D119F0010FA3D1BA4617F80D
:1019C000013D302BFAD0FDE4089BBB429AD1089A26
:1019D000312301361370F5E4249B002B7FF41EAAFB
:1019E000014BFFF73DBA00BFE59600002DE9F04F2F
:1019F00089B06E4C204606F06EFD40B921686C48F7
:101A000006F008F94FF0FF3009B0BDE8F08F20462E
:101A100006F061FD0028F1D0664806F0D9F80028EC
:101A2000F0D1644800F0BCF90028EBD14FF48030CD
:101A3000002106F028F85F4800F0C4F90028E1D141
:101A40004FF48030002106F01EF85B4806F03BF8AA
:101A50000028D7D14FF4A470002106F014F856489E
:101A600006F03DF80028CDD14FF4A470002106F017
:101A70000AF8514806F03FF80028C3D14FF4A4708B
:101A8000002106F000F84C4806F041F80028B9D1D2
:101A90004FF4A470002105F0F6FF474806F059F80E
:101AA0000028AFD14FF4A470002105F0ECFF4248AC
:101AB00000F0ACF80028A5D14FF4A470002105F087
:101AC000E2FF3D4806F02FF8064600289AD13B4930
:101AD0003B48384D384C592206F09CF84FF4A4701E
:101AE000002105F0D0FF052E4AD83146284606F0E1
:101AF0007BF8002886D142F26760002105F0C3FF21
:101B0000204600F0A9F8002847D0204600F0BEF893
:101B1000204600F0A1F8002842D0204600F0B6F898
:101B200008AB03EB86030136F6B2082E43F8200C0F
:101B3000D9D1DDE90673DFF88CB0FF1AEA4600263A
:101B40005AF8040BFEF75EFC804638468946FEF7DD
:101B500069FC02460B4640464946FEF7F7FD1A4B24
:101B60000022FEF7C9FC013602460B46584605F036
:101B70001FF8062EE4D10A2005F032F80026B4E75B
:101B8000062E284602D100F00BF9B2E700F01AF950
:101B900000287FF437AF0726ADE74FF4A470ACE719
:101BA0004FF4A470002105F06EFFB1E7108F000024
:101BB0007093000080910000789100008B930000EA
:101BC000BF930000D19300000000594030B5044697
:101BD00085B0CDE9011202220068A3888DF80C209F
:101BE0009DF80C20816842F002028DF80C208D686F
:101BF000012201A9A84728B10348A18806F00AF8E4
:101C00004FF0FF3005B030BDD793000030B585B040
:101C100000238DF8083002A9032303AA054605F026
:101C200034FFA988044638B19DF80820084805F01B
:101C3000F1FF204605B030BD9DF80E3000939DF8B1
:101C40000C209DF80D30034805F0E4FFF1E700BFDC
:101C5000FA9300002C94000013B500238DF8003097
:101C600001AA01236946044605F00FFF28B19DF83B
:101C70000020A188044805F0CDFF9DF80400C0F3C2
:101C8000401002B010BD00BFFA93000013B512233C
:101C90008DF8003001AA03236946044605F0F5FEDD
:101CA00048B10C489DF80020A18805F0B3FF4FF023
:101CB000004002B010BD9DF805309DF804209DF84D
:101CC00006001B0243EA024318431B0248BF40F0D0
:101CD0007F40EEE7FA93000013B502238DF8003041
:101CE0006946012301AA044605F0CFFEA18860B130
:101CF0009DF80020074805F08DFF9DF8040080F056
:101D00000800C0F3C00002B010BD9DF804200248D6
:101D1000F1E700BFFA9300006994000013B50223B5
:101D20008DF800306946012301AA044605F0ADFE96
:101D3000A18860B19DF80020074805F06BFF9DF871
:101D4000040080F00400C0F3800002B010BD9DF8D4
:101D500004200248F1E700BFFA93000069940000F4
:101D600030B5044685B0CDE9011202220068A3888F
:101D70008DF80C209DF80C20816842F002028DF84D
:101D80000C208D68012201A9A84728B10348A18829
:101D900005F040FF4FF0FF3005B030BD87940000E4
:101DA00007B5074B1A88ADF804209B788DF80630EC
:101DB000032201A9FFF7D4FF03B05DF804FB00BFC5
:101DC000AC94000007B5074B1A88ADF804209B7847
:101DD0008DF80630032201A9FFF7C2FF03B05DF8BA
:101DE00004FB00BF70900000014B1B68184700BF48
:101DF000C0040020014B1860704700BFC0040020E1
:101E000007B50B46002102460091034800F06AF82E
:101E100003B05DF804FB00BFE91D0000F0B5094EFA
:101E2000016802460A2700200B4601311C78355D07
:101E30006D0701D41360F0BD07FB0043A3F1300030
:101E4000F2E700BFB39500002DE9F84F15469A461A
:101E5000D378234A12F803B06F2B81460F460BF05C
:101E6000030B2BD026D8582B0CBF10260A26DDF8E2
:101E700028803246002348463946FEF715FE092AD7
:101E800008F1FF38D4B21ED83034B145E4B277F14E
:101E9000000788F8004001D3D04511D82B789B0665
:101EA00005D5082E15D1AB7843F00803AB7040463A
:101EB000BDE8F88F03F0F703702BD5E70826D6E7C7
:101EC00081460F46D5E7BBF1010F0CBF37345734BD
:101ED000DBE7102EEBD1AB7843F01003E6E700BF51
:101EE000B39500002DE9F04F97B08A46039016464F
:101EF0001C460025307808B9284656E325280AD024
:101F0000039B514698470028C0F24F83731C01354C
:101F10000493049EEEE71822002110A806F028FC86
:101F20007378252B00F0A3800023711C98469E46F1
:101F30009C4618460F4611F8012B2B2A00F0C6804C
:101F400000F2BD80202A00F0C480232A00F0C48063
:101F50002BB19DF8483043F040038DF84830B8F17C
:101F6000000F05D09DF8483043F020038DF848302D
:101F7000BEF1000F05D09DF8483043F010038DF8F6
:101F80004830BCF1000F05D09DF8483043F00803FD
:101F90008DF8483028B19DF8483043F004038DF89F
:101FA00048309DF8483003F04401442903D16FF3D1
:101FB00086138DF848309DF84830099743F0800328
:101FC0002A2A8DF8483040F08C809DF8493043F043
:101FD00001038DF849307B1C1A782E2A9DF8492080
:101FE0000CBF0121002161F341028DF849200CD181
:101FF0005A1C09925A782A2A40F083809DF8492079
:1020000042F004028DF8492002331A786C2A00F05D
:10201000A48000F28680682A00F08C806A2A00F092
:10202000A5804C2A00F0AA801A4612F8013B0492BF
:10203000782B9DF849208DF84B3000F217816D2BDD
:1020400000F2A980692B00F21181572B00F2BE80AB
:10205000412B03D0453B022B00F208819DF84A300A
:10206000042262F302038DF84A300123CAE08DF89E
:102070004B30B31C04939DF84930D90740F1FD80E3
:1020800054F8048BB8F1000F07DA9DF8482042F0AD
:1020900004028DF84820C8F100085A0740F1F68084
:1020A00054F804BBBBF1000F80F2F5809DF8493075
:1020B0006FF341038DF849304FF0FF3BEBE02D2AE1
:1020C0000DD0302A7FF444AF012333E74FF0010CE9
:1020D00030E74FF0010E2DE74FF001082AE701200D
:1020E00028E709A8FFF79AFE099BBB423FF474AFAB
:1020F0009DF848201390C00F60F341028DF84820EE
:102100006AE709A8FFF78AFE9DF848301490C3F3E8
:10211000400242EAD07262F341038DF84830099BD5
:1021200073E7742A26D07A2A7FF47EAF9DF849207F
:1021300006210CE05A78682A9DF8492006D1012131
:1021400061F3C6028DF8492002336DE7022161F385
:10215000C6028DF84920013366E75A786C2A9DF84B
:10216000492001D10421EBE70321F0E79DF8492044
:102170000521ECE79DF849200721E8E7BDF8482054
:1021800022F4F04222F0020242F4804242F00202C3
:10219000ADF84820DFE76E3BD9B201238B4040F217
:1021A00082410B4238D113F0240F52D1DF075DD5A5
:1021B0009DF84A30032161F302038DF84A3002F0A2
:1021C0007803A3F14000434243411BE0A3F15801CF
:1021D000C9B2012000FA01F111F4624F7FF43EAF61
:1021E00040F6010739421DD111F4043F3ED09DF85D
:1021F0004A3060F3020302F07802402A8DF84A3038
:1022000034D000239DF84820C2F340010B4363F310
:1022100041028DF848202EE79DF84A30022161F3F3
:102220000203E8E79DF84A10022002F0780260F30A
:102230000201402A8DF84A1002BF9DF8481041F073
:1022400001018DF84810632BDBD1131E18BF012349
:10225000D8E79DF84A30032161F3020312F0780FAA
:102260008DF84A3014BF01230023CBE79DF8483096
:1022700043F001038DF84830C3E79DF94820002A58
:10228000B4BFDDF84C804FF0FF3806E79F077FF5BD
:1022900013AFDDF850B09DF849100023CDE913339A
:1022A0009DF84A3003F00703012BC1F3C30132D17B
:1022B000CB1E042B04D8DFE803F020454520200086
:1022C000236801294FEAE372CDE910321BD19DF951
:1022D0004030DA17CDE9103204349DF8483013F05D
:1022E00003074FD0049B03983246514605F0A9FCE2
:1022F0000028C0F25A8105440BE654F8043BDA1773
:10230000CDE91032E9E70229E6D11AB243F3C0332E
:10231000CDE91023E0E7022B24D1CB1E042B04D8F7
:10232000DFE803F0181010181800012954F8043BD6
:102330004FF0000214D00229CDE91032CDD19BB26A
:102340001093CAE7073424F00704F4E80223CDE928
:102350001023C2E754F8043B109300231193BCE709
:10236000DBB2CDE7042B08D1073424F00704D4E90D
:1023700000230834CDE91023AFE7032BADD154F887
:10238000043BDDE79DF84B0078283FF6C2AD62289C
:102390001ED8252850D058287FF4BBAD0DF13E0340
:1023A0000093DDE910010AAB12AAFFF74DFDBBF166
:1023B000000F814680F2C280B9F1000F3FF4A9AD51
:1023C0000DF13E06A6EB0903002F7BD0013379E027
:1023D000633815283FF69DAD01A252F820F000BFEA
:1023E000B324000011250000131F0000131F00007C
:1023F000131F0000131F000011250000131F000011
:10240000131F0000131F0000131F00005F250000B2
:102410003725000071240000131F0000131F000067
:1024200049240000131F000037250000131F00007F
:10243000131F000037250000039B514698470028D2
:10244000C0F2B380013564E5BBF1000FDDF84090C8
:102450000ADB5946484606F0A1FAB9F1000F3FF4ED
:1024600058AD09EB000620E04846FEF737FBF8E7D9
:102470001098002800F087800DF13E060AAB009608
:1024800012AA0021FFF7E0FCBDF84A3003F0EF0389
:1024900043F4F04343F01003BBF1000F8146ADF865
:1024A0004A304ADA00283FF434ADA6EB090300278E
:1024B00008E0109B8DF8283000270DF129060DF15A
:1024C000280901239DF84A1011F01002069260D0ED
:1024D0000233139A059213444A0644BF14995B18B9
:1024E000B8F1000F6EDDA8EB03089DF848305807DF
:1024F000C3F3800B66D459065AD53FB1039B5146AE
:1025000038469847002850DB01355F46302350E0BD
:102510001E075CBFC3F300135F01DDE9102348BF52
:102520002B27002BBFF63AAF524263EB4303CDE9B2
:1025300010232D2732E7002730E700279DF84810A9
:102540000DF13E03A3EB09036FF386119B458DF854
:1025500048107FF631AFABEB030313932CE7109BCE
:1025600007293FF6D6ACDFE801F00C04060C08089A
:102570000C0C1D70CDE41D80CBE4EA17C3E90052BA
:10258000C7E41D60C5E4314E0746A6F105090523E1
:1025900098E7080748BF01339BE718460793514661
:1025A000039B98470028079B04DA17B0BDE8F08F1B
:1025B0002023C346594600290BF1FF3BEDDC45447F
:1025C0006D1AD84637B1039B5146384698470028C4
:1025D000EBDB01359DF84A30DA0601D41B0706D53E
:1025E000039B5146302098470028DEDB0135069BCF
:1025F0003BB19DF84B00039B514698470028D4DB24
:102600000135059F2F4406E0039B51463020984733
:102610000028CADB01357B1B002BF5DC0398334611
:102620004A46514605F00DFB0028BEDB0544A84490
:10263000A8EB0503002B7FF76CAC039B51462020D1
:1026400098470028B1DB0135F2E700BFB5940000E0
:102650002DE9F047058B04462807904611D402293E
:1026600005F0070540F0CC80204605F001FB78B16D
:102670000138218B042811D8DFE800F0C2106D85E5
:10268000950001290CBF45F0100545F02005258374
:1026900088F31188BFF36F8FBDE8F08701F0070A58
:1026A000AA4500F0A5800027B9463E46A368002B46
:1026B00000F0BC8041F00801218388F31188BFF34A
:1026C0006F8FA168002900F0BA800D68002900F022
:1026D000B680D1F80480334652462046C047002DCC
:1026E00076D02B6829461D46F0E701F007035A1FF4
:1026F000012A1BD8002221F00701062B276889B286
:10270000C4E9002209D13B4603E0628B01326283B7
:102710001B68002BF9D141F002012183204605F00E
:10272000A7FA00287AD041F0200176E0042B0AD1E4
:1027300021F0070189B22183204605F099FA10B1F2
:1027400041F020012183218B01F0070AAA454FD0D7
:102750000027B946AAE7236921F0070141F00601E5
:10276000062DD3F8009021832DD1B9F1000F3FD071
:1027700041F00801218388F31188BFF36F8F3A4934
:102780002046C84729E021F00701236941F00401F0
:1027900089B2042DD3F804902183E6D000273E4669
:1027A0004FF0040A82E721F00701236941F0050197
:1027B00089B2052DD3F808902183D6D000273E4654
:1027C0004FF0050A72E700273E464FF0060A6DE714
:1027D0002B4687E7B9F1000FD1D1EFF31188202301
:1027E00083F31288BFF36F8F238B23F008032383B7
:1027F000258BEA062ED525F01003238305F0070567
:102800006669218B002EBFF670AF00232768C4E9EC
:10281000003321F0070141F001012183218B01F0F8
:10282000070AAA454FF000097FF440AF002F9CD063
:1028300041F00801218388F31188BFF36F8F002FC7
:10284000C8D03D68394633465246204605F03CFA2A
:102850002F46F4E7AB067FF51BAF25F0200323835B
:1028600005F0070500E700BFF57C0000014B0360A1
:10287000002070478891000008B5044805F0CAF9A7
:10288000BDE80840024805F0C5B900BFB694000095
:10289000EB94000030BFFFF7FDBF00BF074A93680D
:1028A00093F90E10002907DB526993421FBF044AB7
:1028B000536843F080535360704700BF4C0A0020B8
:1028C00000ED00E070B5264B15469A6A12F0100F25
:1028D0009A6A14BF1124102412F0080F9A6A18BFC4
:1028E0001224920706460AD5586B9A6A140634D504
:1028F00019B19A6A22F080029A62132401E06FF003
:102900001500174B9A6A12F0010F9A6A18BF142427
:1029100012F0200F9A6A18BF1524D20602D49B6ABF
:102920009B070AD50E4B5B68190506D5314600F0AA
:1029300075FA10B180F309880224094B9A6A92064D
:1029400042BF5A6A22F400525A629A6A42F0FF0267
:102950009A6200232B70204670BD6FF01500CCE703
:1029600000ED00E0134B9A6A12F0007F9A6A14BFE0
:102970001E201D2012F0807F9A6A18BF1F2012F4BB
:10298000002F9A6A18BF212012F4802F9A6A18BF6C
:10299000222012F4003F9A6A18BF232012F4803FCD
:1029A0009A6A6FEA02426FEA12429A6218BF2420C2
:1029B000704700BF00ED00E010B5194B0246986A61
:1029C0009C6A10F4805F14BF1720162014F4006F67
:1029D0009C6A18BF1820A40509D5986B986A000452
:1029E00004D51AB19A6A22F400429A6219200C4B5B
:1029F0009A6A12F4806F9A6A18BF1A20D2050CD412
:102A00009B6A13F4005F18BF1C20054A936A43F4C5
:102A10007F43936200230B7010BD1B20F5E700BFBE
:102A200000ED00E0F0B5484B5B688BB00446C3F3A3
:102A30000803002585F31188BFF36F8F02F07F40F4
:102A4000B0F17F4F11D102F00C0008280DD0100713
:102A50004CBF0C4601250022033B8DF80720032BB9
:102A600005D8DFE803F0246367602C46F3E7002312
:102A70009DF80720CAB902AE04F1200720686168FA
:102A8000324603C20834BC421646F7D1099A002DDB
:102A900054D0C2F3080121B96FEA52226FEA4222F0
:102AA000099202A9184605F0DFF90BB0F0BD264BDC
:102AB000DA6A9107DBD4DA6A002AD8DBDA6A5200D4
:102AC000D5D55A69A16942F480725A61BFF34F8F1C
:102AD000BFF36F8F5A6931F8021C22F480725A6179
:102AE000BFF34F8FBFF36F8F4DF6027291420AD042
:102AF0009A6AD2B24AB10DF1070201212046FFF7CE
:102B0000E1FE0346B4E72368B2E79A6A12F47F4F06
:102B100005D00DF107010120FFF74EFFF1E79B6A99
:102B2000B3F5803FA3D3FFF71DFFEAE70DF10702DE
:102B30000021E3E70DF107010020EDE722F4FF7229
:102B400022F00102ACE700BF00ED00E0044B5A693F
:102B500042F010025A615A6922F008025A61704725
:102B600000ED00E0EFF30880EFF3098101B5724654
:102B7000FFF758FF01BD00BF002080F31488BFF3AA
:102B80006F8F01F0D9FB00200D490860BFF34F8F14
:102B90000C4880F3088800F02BF8202080F311887F
:102BA00009484FF40461401880F30988EFF314805A
:102BB0000221084380F31488BFF36F8F00F0F6F80A
:102BC00094ED00E080180020C00A00200749D1F8E9
:102BD00090200023C2F307221846934200DB70477F
:102BE000C1F89830C1F8A0000133F6E700ED00E02D
:102BF00008B572B6002383F31388FFF7E7FF144B81
:102C00004FF0FF32C3F88020C3F88420C3F8882037
:102C1000C3F88C20C3F89020C3F89420C3F8982000
:102C2000C3F89C20C3F88021C3F88421C3F888210D
:102C3000C3F88C21C3F89021C3F89421C3F89821DC
:102C4000C3F89C2162B6BFF34F8FBFF36F8F08BDEF
:102C500000E100E0084B9B6883420BD1EFF3058352
:102C600043B1064B5A6842F080525A605A6A22F4C5
:102C700000425A6205F033BD4C0A002000ED00E02E
:102C8000094A93686FF00A019967084958674B68C9
:102C900043F080534B60002383F31188BFF36F8FA1
:102CA0009368986F704700BF4C0A002000ED00E069
:102CB00010B50446EFF31183202383F31288BFF38A
:102CC0006F8F094B58699860084B4FF000625A604B
:102CD0000022436F426783F31188BFF36F8F00F0C8
:102CE00001F9204610BD00BF4C0A002000ED00E0B5
:102CF0000B498A684FF030001044EFF3098C80E8EC
:102D0000F01F74467046FFF7D3FFA64604498A6851
:102D100002F1300090E8F01F8CF309887047000042
:102D20004C0A00201EF0040F0CBFEFF30880EFF3F5
:102D30000980816911F8021C0229FFD001B505F054
:102D400099F801BD40B2002807DB044A410901237C
:102D500000F01F00834042F82130704700E100E09E
:102D6000054B420900F01F0053F82220012303FA0B
:102D700000F01040704700BF00E100E040B20028C2
:102D8000A8BF00F1604001F10101B8BF064B4FEA56
:102D90004111ACBF00F5614000F00F00C9B2B4BFF3
:102DA000195480F80013704714ED00E00B4A08B581
:102DB0000B4B22F07F029A60BFF34F8FBFF36F8FF0
:102DC000D3F8882022F47002C3F8882002F06AFC4D
:102DD00003F084F900F05CF802F0A8FC00000000A9
:102DE00000ED00E042F8203C009B42F81C3C0A4900
:102DF000019B42F8183C029B42F8143C21F001016F
:102E00004FF0807342F8043C42F8081C0023203A3B
:102E100002654367704700BF2F7C0000094A0346E4
:102E2000906870B113F1160F406E05D0A0F140020A
:102E30009A4205D8834203D2814228BF00207047BE
:102E4000002070474C0A002008B50B4B0E46154673
:102E5000986000F047F82C4686F309884FF0000090
:102E6000064B984720464FF000014FF000024FF00C
:102E70000003034C204700BF4C0A0020937E000053
:102E80002F7C0000014B10221A61704700ED00E01A
:102E9000044800232021C2180133272B82F8001395
:102EA000F9D1704700E100E008B5EFF30583064A69
:102EB000103B02EBC30152F8330049688847BDE874
:102EC0000840FFF7EBBC00BF388F0000024B034AFD
:102ED0000348012100F076B8000001200000002026
:102EE00088910000426E054B403A1A60044A402126
:102EF000C3E901121846012100F06EB84009002014
:102F000000000B15084AC2F898000B6823F01F0355
:102F1000034343F01003C2F89C308B6843F0010375
:102F2000C2F8A030704700BF00ED00E02DE9F0438B
:102F3000DFF8608085B00E461F4604464FF000095A
:102F4000B14523DA6068D8B13FB1411E08421BD1B8
:102F50001F2819D92368194216D12368019304F058
:102F6000BBFFA36803430393D8F89050C5F307252C
:102F7000D0B2013DA84207D801A9FFF7C3FF421C08
:102F800009F101090C34DBE76FF01502104605B0BA
:102F9000BDE8F08300ED00E0044B0522C3F8942067
:102FA000BFF34F8FBFF36F8F704700BF00ED00E09E
:102FB000BFF35F8F024B0022C3F89420704700BF1D
:102FC00000ED00E010B5034C01232278FFF7AEFFBF
:102FD000207010BD880A002008B50B4A0023127823
:102FE000FFF7A4FF10F1160F07D0084A0021D2F80E
:102FF0009030C3F30723984200DB08BDC2F8980065
:10300000C2F8A0100130F2E7880A002000ED00E0CD
:103010002DE9F043534B544CD3F890302568C3F35B
:1030200007239D4285B000F29A80FFF7C1FF002080
:103030000C2685421AD14D4C4D4F25706846FFF73E
:1030400015FCDFF82081DFF82C9106460025AE4202
:1030500013D1237843490020D1F89020C2F30722EE
:10306000934276DBFFF798FF002042E0616806FBA1
:103070000011FFF747FF0130DBE7009800EB051177
:103080004FEA051CCB683B40B3F5000F48D00AD887
:10309000B3F5001F30D0B3F5800F36D0B3F5801FE5
:1030A00010D00135D3E7B3F1807F42D0B3F1007F78
:1030B000F7D150F80C3088684A6804F00DFF40F4EE
:1030C000802009E050F80C3088684A6804F004FF5A
:1030D00040F0885040F43020CDE901230390D8F827
:1030E00090302078C3F30723013B98422AD96FF030
:1030F000150005B0BDE8F08350F80C3088684A68C8
:1031000004F0EAFE40EA0900E6E750F80C3088686F
:103110004A6804F0E1FE40F0E06040F40030DBE794
:1031200050F80C3088684A6804F0D6FE40F082708F
:10313000D2E750F80C3088684A6804F0CDFE40F0C1
:103140008870C9E701A9FFF7DDFE237801332370FA
:10315000A7E7C1F89830C1F8A00001337CE74FF031
:10316000FF30C6E700ED00E094910000880A0020DF
:103170000000F0FF00000811014B1860704700BF0D
:10318000C8040020F8B5084F06460D460024AC429E
:1031900008DA3B6898470A28305504F1010401D049
:1031A0000D28F4D12046F8BDC4040020F8B50A4F1C
:1031B0000D46461EC0F10104A3199D4201DC2846BC
:1031C000F8BD73780A2B02D13B680D2098473B6805
:1031D00016F8010F9847EFE7C804002010B5074C18
:1031E0002368C2180648C0F1005101F580318A42B7
:1031F0003ABF2260C0184FF0FF3010BD4C090020CC
:10320000C018002008B5054804F004FD002383F32E
:103210001188BFF36F8F0423184602DF2895000042
:10322000044A0123C2F840354FF080420020C2F822
:103230007835704700E0014020B1034B800143F036
:1032400001031847704700BF80900000084B70B51D
:10325000C31A0D4607499B100446594306484022AD
:1032600004F083FE2B4601462046BDE87040184717
:1032700064090020B76DDBB6D48E000073B50C4C2A
:103280000C4A4023041B00930D460B460A49A41028
:1032900061430646094804F094FE011E05DA3046F3
:1032A0002B4602B0BDE87040184702B070BD00BFA9
:1032B000640900202D800000B76DDBB6D48E0000BD
:1032C000002270B5012104461046FFF757FD0F4854
:1032D00001F01AFA0E4B984215D101F025FA266931
:1032E0000C49304604F013FD00280BDB0125356442
:1032F0002469084904F11C0004F009FD002801DBE1
:10330000E564002070BD6FF00400FBE76934000045
:103310000000AD0BB49100001FB500220123CDE9E0
:103320000223094ACDF800D06B46CDF804D004F052
:1033300076FE002805DB4FF480420023684602F049
:103340003BFB05B05DF804FB4580000010B5074C61
:1033500023782BB94FF4A57005F0B8F8012323703A
:10336000BDE81040002001F0F1B900BF890A00203B
:1033700010B5EFF31184202383F31288BFF36F8F0E
:10338000074A136823F00201DB07116002D4012011
:1033900004F070FF84F31188BFF36F8F10BD00BF7E
:1033A000B409002030B4104B0C2202FB003301465C
:1033B0000020D3E90E529863EFF31180202484F3A8
:1033C0001288BFF36F8F1C6C04F0C00444F0020439
:1033D0001C6480F31188BFF36F8F1DB12B46034827
:1033E00030BC184730BC704764090020D48E000000
:1033F00010B4EFF31182202383F31288BFF36F8F91
:103400001748016841F002040460C80707D482F33A
:103410001188BFF36F8F012010BC01F097B94FF0F6
:103420008041D1F80C04D1F80C14C907EFD5EFF3A3
:10343000118083F31288BFF36F8F0A490B6C03F07E
:10344000C00343F002030B6480F31188BFF36F8F56
:1034500082F31188BFF36F8F002010BCFFF7A2BF6B
:10346000B40900206409002010B1012804D070477D
:10347000034B1B6C5B0701D1FFF794BF704700BF84
:1034800064090020024AC3B21C2003FB00207047DD
:10349000640900202DE9F0413849BFF35B8F0746EE
:1034A000012251E8003F41E800200028F9D1BFF394
:1034B0005B8F33B9324933484B60CB608A6004F08C
:1034C00039FC7B1E012B2BD8012F07D14FF08043F5
:1034D000D3F81C3403F00303012B21D005F054F87A
:1034E0000546F8B9284B1B78E3B14FF08043022220
:1034F000C3F808230646DFF894804FF08044D4F8E0
:103500001824D4F81834D20315D503F00303012B83
:1035100001D0012F0FD155B386F31188BFF36F8F00
:10352000BDE8F081EFF31186202383F31288BFF307
:103530006F8F0125DFE7ADB1304604F0BEFCD4F853
:103540001835002BDBD1D4F80421002AD7D0C4F8D9
:103550000431D4F804310123C4F81835C8F8803197
:10356000A360CCE70021212002F00EFDE7E74FF039
:1035700080430222C3F80423D2E700BF6009002081
:1035800050090020800900208C0A002000E100E0A2
:1035900008B5074804F09FFF38B10648FFF7ECFD77
:1035A0000448FEF727FC002008BD6FF01200FBE77F
:1035B000FC8E0000B93500000A2838B5074D0446D6
:1035C00004D1AB680D215B6828469847AB68034877
:1035D0005B68E1B29847204638BD00BFFC8E000012
:1035E00038B545682B69B3B11035284601F09AFB10
:1035F000044680B90146284601F060FB084B98421A
:103600000BD108492246284601F040FB22460521FD
:103610000620FFF7B3FB002038BD6FF00400FBE786
:103620000000AD0B29360000430970B507D10B4BE4
:10363000596821B101250C68094E854001B970BD5A
:103640008A682A4002D04B68304698471CB12368EC
:1036500021461C46F2E72346FAE700BFB8090020DE
:10366000E88E00002DE9F043476840F20636D006A8
:103670003B7B87B002EA060654BFC2F3401003202A
:1036800001F01F05B6F5837F144645EA43158DF812
:10369000030043D00FD8062E18D007D8B6B1022E9B
:1036A0003ED06FF0150007B0BDE8F083B6F5807F1F
:1036B000F7D101260AE040F20222964232D0B6F556
:1036C000407F31D0B6F5007FEBD1022601232203E3
:1036D00003FA01F12AD57B68C3F808153B695BBB87
:1036E00005F01F026D0974D1920002F1A04284F42A
:1036F0008031D2F80037C1F30041C4F3404423F4D1
:10370000E16344EA410423F007031C4344EA8004D4
:1037100044EA0624C2F800470020C4E70726D5E79C
:103720000426D3E70526D1E70326CFE7630344BF8A
:103730007B68C3F80C15D1E710370DF1020229465A
:10374000384601F0A9FA14F4403F80460CD12946CE
:10375000384604F001FE214B9845DDD19DF802105A
:10376000384601F0E9FAD7E701AB4FF0000903AAA8
:1037700029463846CDE90439CDE90199CDF80C90B8
:1037800001F05EF9154B98428BD114F4003315D03B
:103790009DF803308DF80E3084F48034C4F3004477
:1037A0004B4603AA294638468DF80C608DF80D402B
:1037B00001F0F6F9094B9842CDD072E7CDE9043318
:1037C00003AA0DF1030329463846039301F038F9A3
:1037D000F0E702F5E07253F82230FFDE0000AD0B97
:1037E000F0B54068057B01F01F0444EA4514056903
:1037F00087B0002D60D0B2F5001F00F1100506D192
:103800002146284604F0AAFD002007B0F0BD01AE15
:103810000027B2F5800F0197776038D1B3F1007FB0
:1038200014BF052304238DF804300023CDE904637D
:103830000393836823FA01F111F0010119D1B2F168
:10384000A07F16D104F01F03620903F5E07339D19C
:103850004FF0A04252F82330DB070AD40DF10306E3
:1038600032462146284601F017FA184B984219D0E3
:10387000029603AA2146284601F0E2F8144B98422A
:103880001DD101222146284601F062FABCE7B3F1BE
:10389000C06F05D0B3F1007F14BF01230223C2E73C
:1038A0000323C0E73146284601F04CFA084B984202
:1038B000DED06FF00B00A8E76FF08500A5E76FF092
:1038C0001500A2E751F82330FFDE00BF0400AD0B66
:1038D0000000AD0B02780B69012A08D0022A08D03B
:1038E0004AB9064A5A6203F1140002F041B8044A88
:1038F000F8E7044AF6E7044AF4E700BF0000AD0B1E
:103900000100AE0B0200AE0B0100AD0B2DE9F04F34
:10391000D0F81090D0F8048085B005460C461746C4
:10392000029309F1040A4FF0FF324FF0FF33504683
:1039300002F042F809F1140B00230022584602F06D
:103940003BF8404601F076FC7B1E00260393B7420D
:1039500001D8002322E0039B217AB34283BF237D59
:1039600083F00403C3F3800300230193029B0093BD
:10397000D4E90023284600F04DF8034670B94FF40F
:1039800080420023584602F017F898B1404601F0F3
:1039900061FC284600F02CF86FF0040340460293C7
:1039A00001F058FC504601F0E3FF029B184605B0B9
:1039B000BDE8F08FD9F82430034A934204F10C0497
:1039C000EAD10136C3E700BF0000AD0B08B50346DE
:1039D0004068826900F1080101F0CCFB034B98427A
:1039E00014BF6FF00F00002008BD00BF0000AD0B3A
:1039F00008B543681B68D3F80805D3F80C1501F027
:103A00001FFD034B984214BF6FF00F00002008BD4C
:103A10000000AD0B2DE9F04186B00C4647689DF8DB
:103A200034801546002112220DF106001E4604F0D6
:103A30009FFEBDF830208DF8052004F0010314F03E
:103A400008028DF804300296049519D1A10704D418
:103A5000B8F1000F12D19BB9202201A9384601F01C
:103A600015FC0A4B98420ED00B3398420CBF6FF0F6
:103A70000F006FF0040006B0BDE8F0814022ECE7D3
:103A80006FF08500F7E70020F5E700BF0000AD0B01
:103A90002DE9F0435B4E5C4F00EB810140F2FF15D6
:103AA000814202D10020BDE8F083046814F4804F05
:103AB000C4F3C32CC4F3080340F09080240E16F81E
:103AC0000CC0AB4208BF4FF0FF33192C00F28980C5
:103AD000DFE804F00D13191C1F251C878787873624
:103AE00063878787878787878787667B7E81C2F81A
:103AF0000C355C1C5ED10430D2E7C2F814355C1C76
:103B0000F9D000245FE0C2F80835F2E7C2F81035BA
:103B1000F5E75C1CC2F80835EDD0002404E05C1C1D
:103B2000C2F80C35E7D001245FEA531E5CD14FF098
:103B300001084FF0A04E08FA03F9CEF80C950AE000
:103B4000C2F80835BCF1000FD9D15C1CD3D00024D9
:103B5000A0464FF0060CD0F8009009F4004EBEF1DC
:103B6000000F1CBF4FF00008012403F01F0E5B097B
:103B700042D14FEA8E0E0EF1A04EC9F34129DEF874
:103B800000373B4043EA890343EA0C2343EA080336
:103B900043EA4403CEF80037ADE7C2F80C35D1E76D
:103BA000C2F86035B3F1FF3F0468A4D0C4F3004409
:103BB000002CB8D05C091BD101244FF0A04E04FAB0
:103BC00003F8CEF80885A046C5E7C2F86435E9E7F2
:103BD000C2F86835E6E7C2F86C35E3E76FF0150028
:103BE00061E76FF085005EE70023C3F80C35FFDE68
:103BF0000023C3F80835FAE70EF5E07E002353F8FA
:103C00002E30F4E75B950000F0F8FCFF014B012239
:103C10001A60704700C000400C2903690BD15B6A31
:103C2000064907484B4393FBF0F100FB1133116049
:103C30005360002070476FF08500704790D00300FC
:103C400040420F00044B00690022C3F80021D3F862
:103C5000003101F08DBE00BF00C000407FB5056996
:103C6000AB6A63B33C2901D00C292BD105F11006B6
:103C70004FF0FF324FF0FF33304601F0C5FD134BDC
:103C80000193A86A0323002469460394029304F075
:103C900051F84FF0FF324FF0FF33284601F08CFE11
:103CA000A86A04F09EF80A4BD3F808256A6201223C
:103CB0005A60304601F020FE204604B070BD6FF01F
:103CC0000A00FAE76FF08500F7E700BF0D3C00003F
:103CD00000C0004010B504690020FFF7D3FBA062CC
:103CE0004FF0FF320021204604F042FC04F11000A6
:103CF00004F037FC002201210C20FFF73FF80C20D4
:103D0000FFF720F8024B0122C3F80423002010BD66
:103D100000C000402DE9F041044647680D4604F01C
:103D200033FC4FF0200888B9264B1B7873B164260A
:103D3000606804F045FAF0B9012004F08DFA013E04
:103D4000F6D10021212002F01FF9F0E7EFF31186F0
:103D5000314688F31288BFF36F8F606804F030FA41
:103D6000A8B986F31188BFF36F8FEFE786F3118848
:103D7000BFF36F8FE5E7EFF31186314688F31288C2
:103D8000BFF36F8F606804F01BFA0028EED0BB69A8
:103D90001D706368BA691B680020C3F844250122BE
:103DA000C3F84825C3F82001D3F82041C3F85801CF
:103DB000D3F858019A6081F31188BFF36F8FBDE883
:103DC000F08100BF8C0A0020F7B5054600220121D2
:103DD0000220FEF7D3FF0220FEF7B4FF6B681968DC
:103DE0001A69C1F824255A7D1B7D1343C1F86C352F
:103DF0006E68D6E9004313F0010348D02F6907F13C
:103E0000080004F035FA304B98425AD1387A04F160
:103E10000C0204F5907104F021FA387A012707FAB0
:103E200000F000F009FC0823C4F80035B369C4F8B9
:103E300044350023C4F84835A760D4F85831002B26
:103E4000FBD00021C4F800156B68DC6801AA20468D
:103E500004F089F9002805DB019B226819791868AC
:103E6000FFF716FE6A6813680821C3F80015117A77
:103E700051B9D269C3F834250122C3F83825C3F8F3
:103E80001011D3F810111A60002003B0F0BD082201
:103E9000C4F80025B269C4F84425C4F848350123A4
:103EA000A360D4F82031002BFBD00023C4F82031CC
:103EB000D4F820310123E3604FF48073C4F8043355
:103EC000BBE76FF00400E0E70000AD0B70B5012325
:103ED00083400E4ABFF35B8FDC4352E8001F01EAC8
:103EE000040542E80056002EF7D1BFF35B8F4FF474
:103EF000803282400648C0F80823BFF35F8FBFF3CB
:103F00006F8F0B4214BF0120002070BD000A0020FB
:103F10000010014070B40E49D1E90034D01AC31822
:103F200044F1000422F07F46C1E90034A6F50013F5
:103F3000B3F5400F09D2074B1B681A0A1B069C19E0
:103F4000054B42F10005C3E9004570BC02F0A0B981
:103F500090070020040A00209807002011B3BFF347
:103F60005B8F0123104A834052E800CF4CEA030CD8
:103F700042E800C10029F7D1BFF35B8F0B4A4FF431
:103F800080338340C2F80433094BBFF35B8F1B6857
:103F9000BFF35B8FC340DB0742BF064B4FF40032D9
:103FA000C3F80021704700BF000A00200010014044
:103FB000FC09002000E100E00D4B1868010A000632
:103FC000BFF35F8F0B4BD3F80435181841F1000194
:103FD000B3F5801F0AD2084BD3E90023904271EB5E
:103FE000030303D210F1807041F10001704700BF5C
:103FF000040A002000100140980700202DE9F04F2E
:1040000085B016461F469DF840A00446FFF75EFFA8
:104010000190FFF7D1FFB04271EB070354D23E4B42
:10402000301A67EB0101984271F100014FD23B4B0E
:1040300003EB0413D3E902239F4208BF96425ED0EC
:1040400037494FF4803804F1500508FA04F8AD0000
:10405000C1F848832046ADB204F0E3F826F07F4B68
:1040600005F1804504F5A87305F58835DC464FF069
:1040700003090293029A2CF07F4341F82230C1F8E1
:104080004483D1F80435274A6FF00200C01A604417
:1040900020F07F40904232D9286868B1D1F80435C9
:1040A0000393A3EB0B0020F07F40B0F5000F26D95F
:1040B000204604F0B6F8039BBAF1000F07D109EBD4
:1040C000030C09F10109D5E7BAF1000F09D06FF02F
:1040D000150520460199FFF741FF284605B0BDE8C8
:1040E000F08F0123104ABFF35B8FA34052E8000F0B
:1040F000184342E800010029F8D1BFF35B8F07495C
:104100000E98230101EB0412C8500F9B5360C2E9C3
:1041100002670025DDE700BF010080008007002066
:1041200000100140FDFF7F00FC0900207FB51C4C02
:104130001C4BC4F80833C4F848331B4B00254FF020
:10414000FF304FF0FF31C4F80855C3E902014FF4C6
:104150008033C4F80433154B02264FF4003201219A
:10416000C4F804631120C3F880212A46FEF706FE36
:104170001120FEF7E7FD0E4A0123A36023601360C0
:104180000C4B0D4A0093CDE9015500232846FFF75B
:1041900035FF3046FFF77EF9284604B070BD00BFFA
:1041A0000010014003000F008007002000E100E044
:1041B000000A0020153F0000FFFF7F002DE9F743B4
:1041C0002F4CD4F8043399070BD5D4F8043143B1FC
:1041D0002C4A0023C4F80431D4F8043113680133A5
:1041E0001360D4F80433DA0329D5BFF35B8F264B71
:1041F00053E8002F22F0010143E800100028F7D116
:10420000BFF35B8FD30702D4D4F84031BBB1002594
:10421000C4F84051D4F84031FFF7CEFEEFF31182DD
:10422000202383F31288BFF36F8F184BD3E9026703
:10423000B042B94106D282F31188BFF36F8F03B049
:10424000BDE8F0834FF0FF384FF0FF39C3E9028932
:10425000D3E900101D604FF48033C4F84833C4F82C
:104260004051D4F8403182F31188BFF36F8F002999
:10427000E5D0009032463B4628468847DFE700BF3E
:1042800000100140040A0020FC09002080070020E3
:1042900030B5431C124C85B005D08442A8BF0446FB
:1042A000012CB8BF0124FFF787FE0E4B0C4DD3E95C
:1042B0000013401AB0F5000F10D22218AA4228BFEE
:1042C0002A4652184FF0000007490091CDE901003D
:1042D00043F10003FFF792FE05B030BD2A46F0E738
:1042E000FFFF7F0090070020153F000008B5FFF793
:1042F00063FE024B1B68C01A08BD00BF9007002078
:104300004FF0704393F8E02F062A09D1D3F8E83F25
:10431000C3F30313033B042B02D8024AD05C70475B
:10432000002070478E950000024AD2F80034002B1E
:10433000FBD0704700E0014010B503F07EFF40B1B4
:104340004FF080538E4AD3F82433C3F30423C2F8CA
:104350004035FFF7D5FF10B18A4B8B4A5A6703F0FF
:104360006CFF48B14FF080534FF08042D3F8443295
:10437000C3F34233C2F83C35FFF7C2FF30B1834A82
:10438000D2F8FC3023F08073C2F8FC3003F055FF04
:1043900040B14FF080430022C3F80C21C3F8102134
:1043A000C3F83825FFF7ACFF20B14FF0804303225C
:1043B000C3F8A025FFF7A4FF60B1754B0522C3F831
:1043C00010260122C3F888260022C3F818263F22AF
:1043D000C3F814264FF08053D3F83021511C09BF85
:1043E0004FF07043D3F8343193F8E02FD3F8E83F1F
:1043F00008BFC3F30313062A4DD1033B042B03D894
:10440000644AD35C002B46D04FF08052624BD2F806
:104410000414C3F82015D2F80814C3F82415D2F8F0
:104420000C14C3F82815D2F81014C3F82C15D2F8C0
:104430001414C3F83015D2F81814C3F83415D2F890
:104440001C14C3F84015D2F82014C3F84415D2F850
:104450002414C3F84815D2F82814C3F84C15D2F820
:104460002C14C3F85015D2F83014C3F85415D2F8F0
:104470003414C3F86015D2F83814C3F86415D2F8B0
:104480003C14C3F86815D2F84014C3F86C15D2F880
:104490004424C3F8702503F0D0FE48B14FF0805398
:1044A0004FF08042D3F8583203F04F03C2F8E43E95
:1044B00003F0C3FE48B14FF08043D3F80024D20785
:1044C00044BF6FF00102C3F800244FF08053D3F8CB
:1044D0003021062A26D1D3F83431033B042B02D8ED
:1044E0002E4AD35C63B12E4AD2F83C3743F4806342
:1044F000C2F83C374FF08053D3F83031062B11D13E
:104500004FF08053D3F83431033B042B02D8254AB3
:10451000D35C3BB14FF01023D3F808224FF0804317
:10452000C3F858254FF01023D3F80022002A03DBEC
:10453000D3F80432002B22DA1B4901234FF010205C
:10454000C1F804351524FFF7EFFEC0F80042FFF76D
:10455000EBFEC0F80442FFF7E7FE0023C1F8043584
:10456000FFF7E2FEBFF34F8F0849104BCA6802F411
:10457000E0621343CB60BFF34F8F00BFFDE710BD78
:104580000030014000C007400DF0ADBA00ED00E082
:10459000005000408995000000C000408495000054
:1045A000001000407F95000000E001400400FA0583
:1045B00030B50468CCB1BFF35B8FB4FA84F3C3F1B8
:1045C0001F03DBB201229A4024EA020250E8005F96
:1045D000A54204D140E8002CBCF1000FF6D1BFF396
:1045E0005B8FE6D102480B7030BD0248FCE700BF8C
:1045F0000000AD0B0200AD0B10B50368CB40DB072C
:1046000014D401238B400268BFF35B8F43EA02019D
:1046100050E8004F944204D140E8001CBCF1000F68
:10462000F6D1BFF35B8FEED1014810BD0148FCE726
:104630000000AD0B0400AD0B014BC3F8040570473F
:1046400000F00140F7B5044618B1012823D003B0AB
:10465000F0BD4FF080430222C3F808230122DA6044
:10466000C3F80401D3F80431064601238DF807305E
:1046700042F210754FF08047D4B1012CE7D1D7F842
:104680000C3403F48033AEBB83B3012003F0E4FDAC
:10469000013DF4D12AE04FF080430022C3F8080323
:1046A0005860C3F80021D3F800310DF10706DCE7AC
:1046B000D7F8183403F480333EB9002BC7D001205B
:1046C00003F0CAFD013DF3D1C1E7D7F8182402F089
:1046D00003023260002BBAD09DF80700012803D1F5
:1046E00003F0BAFD013DC7D1012CB0D1054B00222A
:1046F0005A71ACE7D7F80C2402F001023270002B9B
:10470000EAD1F3E7080A0020044B1A7922B9012202
:1047100018609A800248704702487047080A0020D3
:104720000000AD0B0C00AD0B08B5074B1B682BB19F
:104730000020FEF715FB08B9FEF704FB4FF080439D
:104740000022C3F8182508BD080A002038B5B0B10A
:10475000012855D14FF080420023C2F80031D2F831
:104760000021304A03F18043012119602E4B1B6860
:10477000002B50D04FF08043C3F8040340E04FF0CB
:104780008043D3F81814D3F81824C8032AD502F0AC
:104790000303012B04D013B10020FFF753FF0023C4
:1047A0004FF08042C2F818350023C2F80431D2F825
:1047B00004311E4AD2F8FC0040F08073C2F8FC308D
:1047C0001B4B1C6844F0010119605D685968491B66
:1047D000B1F50A5FFAD31C60C2F8FC000823154A41
:1047E0000220BFE7D3F81424D107D8D5D3F81C246E
:1047F0009207D1D40C4A12681AB10222C3F80423DA
:1048000038BDD3F80421002AFBD00022C3F80421CC
:10481000D3F80431F4E71368002BFCD000231360B5
:104820001368EDE700010040080A002000ED00E0F9
:10483000001000E00401004010B54FF08043D3F8B1
:1048400000216AB10022C3F80021D3F8002101221F
:10485000C3F80823114B587910B95A711B6898474F
:104860004FF08043D3F8042172B10022C3F8042131
:10487000D3F80421D3F81824D3F81824920704D1CC
:104880000122C3F818259A6010BD0222C3F808233C
:10489000024BBDE810401B6801201847080A0020A1
:1048A00070B500F108030C4C34F81330DA050546F6
:1048B0000E4607D5C3F3432304EBC30254F8333049
:1048C00052689847A3682BB1E26831462846BDE894
:1048D0007040184770BD00BFF404002010B4C0B28F
:1048E000114A083032F81030D9051BD5C3F34321E3
:1048F00023F4F85322F8103002F10E04002034F8AB
:10490000023F13F4807F03D0C3F34323994209D0BD
:1049100001302028F3D1002342F83130034810BC85
:10492000FFF76ABE10BC7047F40400204C0500205D
:10493000F0B5054600200446012607468C420BD1FF
:10494000114BD3F87C2132B10022C3F87C21D3F87B
:104950007C3140F00040F0BDE3B29B0003F5807273
:104960009B0806FA03F31D420BD002F1804202F5C8
:10497000C042D2F800C0BCF1000F02D0176012682C
:1049800018430134DAE700BF00600040CBB20246B2
:10499000083308460C4931F81330990611D59907A8
:1049A0000FD410685B0B01219940C0F808131268FE
:1049B00002EB8303D3F8102522F00302C3F810257D
:1049C0007047002103F0ABBCF4040020F7B5CDB272
:1049D000174E0835074636F81530DB070C4624D548
:1049E000FFF7D4FF36F815309A0606D55B0B3A6808
:1049F00003F5A273002142F823102046FFF76EFF53
:104A0000002301A826F81530019403F035FC019B22
:104A100000EB8300074BD0F80027134043F002035C
:104A2000C0F80037044803B0F0BD0448FBE700BFFE
:104A3000F4040020F0F8FCFF0000AD0B0400AD0B07
:104A40002DE9FF41136807460C461546FBB1CEB26F
:104A5000DFF83C81083638F8162002F02202222ABC
:104A600022D00022CDE900228DF80E208DF80F20F3
:104A70000DF10E010DF10F02204603F007FC38F88E
:104A8000163023F0020343F0010328F816306B6858
:104A90004BB393F800C05A683D4EE3B2083336F882
:104AA0001310880702D5B2B13A481FE021F0200167
:104AB000C904C90C26F813106AB1BCF1030FF3D86E
:104AC0006A68386852681278BCF1000F11D102F59B
:104AD000A27240F822C036F8132022F01C0242EAEB
:104AE0008C0226F81320AB6843BB2B4804B0BDE80A
:104AF000F08100EB820041EA4231D0F810E52EF05F
:104B0000030EC0F810E53F6807EB820741F0200173
:104B1000D7F8100526F8131020F4473020F4407021
:104B2000C7F810052002D7F810E500F4F85040EA65
:104B30000C4040EA0E00C7F81005CCE7D3E9006747
:104B40002046FFF7CBFE002ECFD0114DD5E9002334
:104B5000964203D19F4201D1002209E00F480DF196
:104B60000F01FFF725FD0C4B9842BFD19DF80F2098
:104B700045F83260E4B205EBC20308345F6035F8F3
:104B8000143043EA422343F4807325F81430ACE731
:104B9000F40400200400AD0B0000AD0B4C05002018
:104BA0002DE9FF4107460C461E4612B3CDB2DFF891
:104BB000D080083538F81530980701D4990621D4EB
:104BC00013F01C0F02D05378012B1BD001238DF85A
:104BD0000F300023CDE900230DF10F01931C204677
:104BE000013203F053FB38F8153043F0030328F883
:104BF0001530002E42D0E1B2214D083135F8112098
:104C0000930703D41F4804B0BDE8F08196F800E094
:104C1000D7F800C022F020020EF5A270D2040023C3
:104C2000D20C4CF8203025F8112096F801C0BCF1C8
:104C3000000F23D03868B67800EB8E004FEA0C4C9A
:104C4000D0F8103523F4981323F4F853C0F8103536
:104C5000230203F4F8530CF4403C3605D0F81075E9
:104C600043EA0C0306F4801642EA4E32334342F024
:104C700020023B4325F81120C0F810350248C2E756
:104C8000F40400200400AD0B0000AD0B014BC3E9A0
:104C900002127047F4040020C9B20831044B33F803
:104CA0001130990643BF5B0B0248137002487047EE
:104CB000F40400200000AD0B0400AD0B70B5164DE0
:104CC00095F8604006462CBB2146402205F11000B5
:104CD00003F04EFD30682E6D21468E420ED100232A
:104CE000C0F87C31D0F87C3140F30730FEF72AF869
:104CF00001230A4885F86030AB6570BDCBB29B00DC
:104D000003F580727C2B08BF845001F1010108BFBC
:104D10008358E2E70248F0E7F40400200000AD0BFE
:104D20000C00AD0B034B93F86000003818BF012056
:104D3000704700BFF40400200148FFF75DBC00BFCE
:104D4000480500200148FFF733BC00BF480500209C
:104D500073B503680C46D3F804130029A4BF4FF0C1
:104D60000041C3F80413E3B21D49083331F813308E
:104D700099061AD513F0020617D15B0B9C00056843
:104D800004F580716E50695801682144D1F81045CE
:104D900044F00104C1F810452AB10168012202FA69
:104DA00003F3C1F8043302B070BDC3F38203042BD4
:104DB00012D0052B12D001A8019403F05DFA019ADC
:104DC000D0F81035D34003F00103991C204602B0FF
:104DD000BDE8704003F0A3BA0321F7E70221F5E72D
:104DE000F40400202DE9F347544B554FD3F8040346
:104DF000396DC0B240F00040FFF79AFD051E18DA89
:104E00000023F96D0093684603F098FA4FF001080B
:104E100097F85C30DA075AD4396D4FF00040FFF74D
:104E200087FDF96D684603F089FA0028F0D125F076
:104E300000450124002D69D102B0BDE8F08794FA45
:104E4000A4F4B4FA84F4E00804F1080304F00702BF
:104E500037F813901DF80030019408FA02F223EAA3
:104E600002030DF8003001A803F006FA019B03F5D8
:104E7000E0734FEA990150F82360C9F3820A4B07A7
:104E8000D146C6F3014626D520465146FFF708FD18
:104E900001A8019403F0F0F9019B03F5E073F6B269
:104EA00050F82330C3F301439E4207D1002120462E
:104EB00003F035FA3146204603F031FA01A8019497
:104EC00003F0DAF9019B08FA03F3C0F82035009CDF
:104ED000002CB4D1A0E7022E0CD10321204603F010
:104EE0001EFA0AF00503012BE8D149462046FFF7D8
:104EF000D7FCE3E70221204603F011FABAF1030FD1
:104F0000F3D0032EDAD1BAF1020FEDE795FAA5F34B
:104F1000B3FA83F304FA03F29B0003F1804303F531
:104F2000C04325EA0205D3F81005D3F81015C0F3E5
:104F30000420C1F30141FFF7B3FC7BE700600040B0
:104F4000F404002001460148FFF732BB5805002059
:104F5000CB7B10B433B9D1E900420368C3F80845EC
:104F6000C3F80C2503688A68C3F8242503793C221A
:104F70005343054AD3582BB1006810BC40F30730A7
:104F8000FDF7E0BE10BC7047100A002013B53B4B84
:104F900001930023C0F80431D0F80421C0F8243173
:104FA000D0F82421C0F81C31D0F81C21C0F80831F9
:104FB000D0F80821C0F800324B6381F82F3001236C
:104FC000036291F82D209A4218BF83604B6B8A6A66
:104FD000934204460ED24A6AD35CC0F81C350B6873
:104FE00003B340F286238B608B682548C4F80433F2
:104FF00002B010BD91F82C3013B10123C361EEE76C
:105000000B6A13F0400F4FF0010316BFC3614361F9
:1050100081F82D30E3E7204603F0A2F928B1019B87
:10502000013B0193019B002BF5DC91F82F305BB91C
:105030001348019B002BDBDC0023C4F8003505235B
:105040001048C4F80035D3E7D4F8C434C4F8C434E5
:105050008BB10D4A0B4813F0010F18BF104613F027
:10506000020F02F1010218BF104613F0040F074BA4
:1050700018BF1846DDE70348DBE700BFA086010044
:105080000000AD0B0100AD0B0000AE0B0200AE0B3B
:1050900013B5334B01930023C0F80431D0F8042139
:1050A000C0F82431D0F82421C0F81C31D0F81C21DC
:1050B000C0F80831D0F808214B6381F82F308B6A93
:1050C000012B044617D10B6A5B0614D40223C4F8E3
:1050D00000320123236291F82D20022A18BF236099
:1050E0000B688BB140F286238B608B681D48C4F837
:1050F000043302B010BD0123E9E7204603F030F984
:1051000028B1019B013B0193019B002BF5DC91F839
:105110002F305BB91348019B002BEADC0023C4F855
:10512000003505231048C4F80035E2E7D4F8C4344C
:10513000C4F8C4348BB10D4A0B4813F0010F18BFEB
:10514000104613F0020F02F1010218BF104613F0CF
:10515000040F074B18BF1846DDE70348DBE700BF25
:10516000A08601000000AD0B0100AD0B0000AE0BEE
:105170000200AE0BF8B506792A4D4FF03C0C0CFB43
:1051800006FC05EB0C0494F82E70002F3DD1A760AF
:1051900045F80C20636084F82D7084F8317084F831
:1051A000307051B34B7B84F838308F7B84F8397082
:1051B0000FBB0A6802F01F03520928D19B0003F1BC
:1051C000A043DFF864C0D3F8004740F20C6704EA5C
:1051D0000C043C43C3F800474C6804F01F03640907
:1051E0001AD19B0003F1A043D3F8002702EA0C0276
:1051F0003A43C3F80027FFF7ABFE3C2303FB0655F9
:105200000A48012385F82E30F8BD0948FCE703F56C
:10521000E07357F82330FFDE03F5E07352F82330D4
:10522000F9E700BF100A0020F0F8FCFF0000AD0B0A
:105230000C00AD0B036802790521C3F80015044B7F
:105240003C2101FB0233022283F82E20704700BF6D
:10525000100A002003680B4A0179C3F80823D3F829
:10526000002222F00302C3F800220022C3F8002526
:10527000054B3C2000FB0133012183F82E1083F8FD
:105280003020704786420400100A00202DE9F047C4
:10529000314F0479D0F800903C2303FB04730D4692
:1052A00093F82D30012B944604D10B78012B06D1B5
:1052B0002A4811E0022B02D10B78012BF8D13C26B1
:1052C000274BC9F8083306FB047696F830302BB12B
:1052D000B3682448C9F80433BDE8F0878CF00403B0
:1052E000C3F3800386F83030C6F820C0A846B8E87B
:1052F0000F0006F10C0EAEE80F00D8F80030CEF823
:1053000000306B68B362EB6873626B78C9F88835FC
:105310002B78C4EB041A012B07EB8A0A17D09BB930
:10532000CCF3401C3C2303FB04735146484683F8EE
:105330002CC0FFF72BFE3C235C433A193B59002B52
:10534000CAD182F83030C7E74FF0010CEAE7514686
:105350004846FFF79DFEEEE7100A00200500AD0B62
:10536000864204000B00AD0BF0B5324C324887B0DA
:10537000214602F0F5FF002859D194F82F70FFB9AB
:10538000227B931E012B1BD8606AA369984217D118
:10539000E36963626369A362236A274884F82D7016
:1053A000C3F34013032A84F82C3004D107B0BDE8BE
:1053B000F040FFF7EBBD07B0BDE8F040FFF768BE77
:1053C0001E4E0FCE01AD0FC533682B6047B31A4A8E
:1053D000D2F8C434C2F8C43413F0020106D0012359
:1053E0008DF80030002384F8303007E013F0040219
:1053F00009D002238DF8003084F83010D4E9003150
:105400006846984713E013F0010305D003238DF895
:10541000003084F83020F1E704228DF80020E2E724
:10542000236A8DF800705B0784F83070E6D507B00A
:10543000F0BD00BF100A0020003000401C0A002010
:10544000F7B5064603F02EF8084603F02BF801A83E
:10545000019603F01DF8019B2E4D00EB83000C46D6
:10546000D0F80037019440F20D612B400B43C0F897
:10547000003701A803F00CF8019B00EB8300012723
:10548000D0F800372B400B43C0F80037042002F05F
:10549000E3FE092501A8019402F0FAFF019AD0F871
:1054A0001035D340DB0715D401A8019602F0F0FFB8
:1054B000019B07FA03F3C0F80C35042002F0CCFE80
:1054C000304602F0EFFF013D042002F0C5FE15F06A
:1054D000FF05DFD101A8019402F0DAFF019A012350
:1054E0009340C0F80C35042002F0B6FE204602F0CE
:1054F000D9FF042002F0B0FE01A8019402F0C8FF19
:10550000019AD0F810350448D34003F00103C01AC3
:1055100003B0F0BDF0F8FCFF0100AD0B08B5144B73
:10552000A8220021184603F023F903220261114941
:105530004261114A8161C2614FF4806202620022BD
:1055400082624262C26201660C4941661021816634
:1055500003460267C2664267BFF35F8F084911F8CE
:10556000010D98540132102AF9D1BFF35F8F08BDA5
:10557000100400209395000010000020000000207F
:10558000AC95000038B5EFF31185202383F3128822
:10559000BFF36F8F064B9C6802F0B0FF85F3118854
:1055A000BFF36F8F2046BDE83840FDF753BB00BF07
:1055B0004C0A002038B5094B53F82040013053F80D
:1055C0002050A54200D838BD636823B1204602F0C0
:1055D00098FF0834F5E723689847FAE7E892000057
:1055E00070B52B4B2B4C2C4D012286B003201A702A
:1055F000FFF7E0FFFDF740F902F09FFF0420FFF7FF
:10560000D9FF2646AE4204F1300410D300F0FEFB71
:10561000204C224EAC4226D300F00CFCFCF7E6F9FD
:105620001F4A137B23F00103137306B070BD54F8B7
:105630000C3C059354F8103C049354F8143C039329
:1056400054F8183C029354F81C3C019354F8203C45
:10565000009354E90A2354E90C0100F0D3F954F8FB
:10566000303C5E65CDE7D4E90A23B3F1FF3F08BFC4
:10567000B2F1FF3F05D052EA0301206803D102F0E6
:1056800089FF3034C6E73146183000F087FDF8E76F
:105690008C0A00207090000070900000A18600002D
:1056A0002008002008B50348034A0021121A02F01E
:1056B00040FF08BD80070020900A002070B500233D
:1056C00086B00122CDE90423134E144D01930F221D
:1056D000CDE902321249142303FB005506EBC01634
:1056E00004464FF4C07000FB04110E4B00954FF4BC
:1056F000A072304600F086F9737B0B4AEE6023F00F
:10570000040373734FF4046304FB033313442C74D6
:105710006B6006B070BD00BFA00700204C0A0020DF
:10572000001300203D850000C00A0020BFB5002006
:10573000FFF740FF2C4B83F308882C4D2C4E6B69F0
:105740002C4F43F400736B610024E02385F8223072
:10575000EC772C766C76AC7685F820406B6A43F457
:10576000E0236B6285F82340FDF7F0F9FDF78AFB33
:105770004FF0FF33AB62EB62FDF74AFCFDF7A6FB8F
:105780001D4BB36040F201129A81C3E919441C67B2
:1057900002F0A0FE0120FFF70DFF0220174DFFF7DA
:1057A00009FF00F067FB164B75610593012315494E
:1057B0000094CDE903434FF480623B46CDE90144B8
:1057C000284600F01FF96A7B064622F004022846AC
:1057D0006A7302F01BFF2046FFF770FF3A4631461E
:1057E0002846FDF731FB00BF0013002000ED00E06C
:1057F0004C0A0020E1550000A008002020080020ED
:10580000AD950000801400202DE9F34104461746B1
:105810001E46EFF31188202383F31288BFF36F8FA6
:10582000C368334A7BB180689168884219D057EACF
:10583000060318D188F31188BFF36F8F6FF00F0044
:1058400002B0BDE8F081916891F90E102161013339
:10585000E3609368A36088F31188BFF36F8F002023
:10586000EEE72169F2E791F90E1090F90E309942B6
:10587000A8BF19466FF07E029142B8BF11468B4215
:105880002DDD02F066FE0546CDE900761948224678
:10589000414600F007FA0028E1D0EFF311862023FB
:1058A00083F31288BFF36F8FA068D0B1236821699A
:1058B0009C420AD04BB193F90E309942A8BF1946C9
:1058C0006FF07E039942B8BF194602F042FE40B124
:1058D0000848314600F056FA6FF00A00B0E700259C
:1058E000D2E7002DF4D186F31188BFF36F8FF3E771
:1058F0004C0A00208D0A002038B58368044663B343
:10590000194A926893422BD1C368012B03D9013BFA
:10591000C360002038BDEFF31185202383F3128884
:10592000BFF36F8F0169806802F013FE204602F01A
:10593000BBFEA06058B190F90E2022610022826760
:1059400002F064FE0948294600F01CFAE1E7E06035
:1059500085F31188BFF36F8FDBE76FF01500D9E790
:105960004FF0FF30D6E700BF4C0A00208D0A002020
:1059700038B50446EFF31185202383F31288BFF373
:105980006F8F02F091FE48B10022826702F03EFE66
:1059900029460848BDE8384000F0F4B9D4E902329D
:1059A0009A4218BF0133A36085F31188BFF36F8F4C
:1059B00038BD00BF8D0A002013B5EFF311812024FC
:1059C00084F31288BFF36F8F846844B1013C846014
:1059D00081F31188BFF36F8F002002B010BD52EA2F
:1059E000030406D181F31188BFF36F8F6FF00F00AE
:1059F000F3E7CDE900230246014800F053F9ECE754
:105A00008D0A0020F0B5073285B022F00702044667
:105A10007F320E9D0D9E2573583022F03F02C4E95F
:105A20001600042500203F2AA673C4E90600A060E2
:105A30006573E07301F14007A2F1400605D880F3D9
:105A40001188BFF36F8F284602DFC4E919768D18DD
:105A500000260C9AE66602920B9A01920A9A00922C
:105A600020462A46FDF7BEF9044B66659B6803B1E4
:105A70001B6F2367284605B0F0BD00BF4C0A00200D
:105A800038B50D4D2B4653F8184F9C4200D004B941
:105A9000EC68AB6838B95A7BD20604D1A26912B956
:105AA000DA897F2A05D89C4202D0204600F0BEFA4F
:105AB00023466B6138BD00BF4C0A002008B590F941
:105AC0000D20437B002A014604DA03F07F03437371
:105AD00002F062FD044B9868431A58425841BDE8F1
